:100000000EC01BC01AC019C018C017C016C015C03A
:1000100014C013C012C012C010C00FC00EC01124F3
:100020001FBECFEDCDBF20E0A0E6B0E001C01D9225
:10003000AD39B207E1F7C2D1D3C1E2CF1F920F921F
:100040000FB60F9211242F933F934F935F936F93AB
:100050008F939F93AF93BF93CF93DF93EF93FF93D0
:1000600084B195B19C0133708091620090916300DE
:1000700042B74831E8F3837099278130910551F0F8
:1000800038F08230910539F1039709F445C064C016
:10009000C09862C0809160008823D9F0C7E8D0E0A2
:1000A00088819981E9E8F0E06081A62FB0E0820FB5
:1000B000931FAA0FBB1FA958BF4F4D915C91119779
:1000C000841B950B998388832D933C936F5F677096
:1000D0006083C19A41C0809160008823D9F0C4E751
:1000E000D0E088819981E6E7F0E06081A62FB0E05A
:1000F000820F931FAA0FBB1FAC59BF4F4D915C914C
:100100001197841B950B998388832D933C936F5F84
:1001100067706083C19820C0809160008823D9F007
:10012000CAE9D0E088819981ECE9F0E06081A62FEE
:10013000B0E0820F931FAA0FBB1FA657BF4F4D9170
:100140005C911197841B950B998388832D933C9325
:100150006F5F67706083C09A8091620090916300C6
:1001600001969093630080936200FF91EF91DF917D
:10017000CF91BF91AF919F918F916F915F914F916F
:100180003F912F910F900FBE0F901F901895F894EC
:1001900040916200509163007894A895F894209162
:1001A0006200309163007894241B350B28173907BF
:1001B000A0F30895FC0120E0119211922F5F2830E6
:1001C000D9F7FC01128A118A108A0895CF931092F0
:1001D00060008AE890E0EEDF87E790E0EBDF84E6FE
:1001E00090E0E8DFF8941CBC82E08ABD13BE12BE2A
:1001F0008CE789BD18BC88E088BF89BF83B782605F
:1002000083BF81E087B986EA86B985E083B9109219
:100210006300109262007894C398C298BA9884E000
:1002200090E0B5DF81E08093600080E49CE9AFDF7F
:100230001092600082E887B9BA9A80917400909118
:10024000750040919A0050919B0020918700309159
:100250008800840F951F820F931F21E0843C9140FA
:1002600008F420E02093610021110EC0C4E0C39A7D
:10027000C29A85E395E08BDFC398C29885E395E049
:1002800086DFC150A1F702C0C2E0F1CFCF9108953F
:100290008AE890E08FDF87E790E08CDF84E690E0EB
:1002A00089DF81E08093600082E290E070DF0F2EB2
:1002B000FAE9EF2EF0E0FF2EF02D07E810E0C4E79A
:1002C000D0E0A12CB12CC12CD12CF894F701808165
:1002D0009181F801408151812881398178943F9B37
:1002E0000DC0803EF5E19F0720F4403E65E15607D2
:1002F00090F03F9883E290E04ADF41C0803CE3E029
:100300009E0748F4403CF3E05F0728F43F9A83E2FD
:1003100090E03DDF34C040336BE15607D8F18133C4
:10032000EBE19E0770F536C0C398C29828C0C39A07
:10033000C29A25C0821B930BA0E0B0E024173507BA
:10034000E0F4421B530B4035510560F516C0809117
:100350006100882319F0C39AC29A11C0C39AC29847
:100360000EC0880F991FAA1FBB1F84179507A607E9
:10037000B70718F0C398C29A02C0C398C298A8954C
:10038000A4CFF8948091620090916300789491FDDD
:10039000CBCFCDCF2817390768F28A2D9B2DAC2DF6
:1003A000BD2DCCCF60E070E084179507A607B70796
:1003B00070F6209161002111E0CFD3CFF89484E052
:1003C00084BB18BA8FE087BB78942DE088E190E079
:1003D0000FB6F894A89581BD0FBE21BDF7DE58DF9A
:0403E000F894FFCFBF
:00000001FF
